:100B4C00C0F9A4B0999282F880908883C6A1868E51
:040B5C00F7FBFDFEA8
:100B9400438901758C4CE4F58AD2A9D28CD2AF2258
:03000B000209D116
:1009D100C0E0C0F0C0D075D000C000C004C005C0E8
:0309E10006C00746
:1009E400758CFE758A330519E51970020518B291E4
:1009F400AE18FF7C007DC812048AED4C7002B290E0
:100A0400D007D006D005D004D000D0D0D0F0D0E0AC
:010A140032AF
:100B7200EEC313FEEF13FFEF1F70011E144E70F74A
:010B82002250
:040926008E558F5605
:10092A00E4FBAE55AF567C007D0A12048AAA05AED6
:10093A0055AF567C007D0A12048A8E558F56EBFFFE
:10094A003395E0FE745C2FF582740B3EF583E493D5
:10095A00FFE5A0440FFEEF5EF5A0AF02EF900B4C4F
:10096A0093F5807F647E00120B727580FFE5564511
:07097A005560040BBB04AB48
:010981002253
:030000000207D123
:0C07D100787FE4F6D8FD758185020818D9
:040A4300021A800A09
:100B8300438950E4F58CF58AD2ABC28ED2AFC28EC4
:010B9300223F
:100A6F00AF8DEFFEAD8B7C00E42DFFEC3EFEE4F589
:100A7F008DF58BC294C2950C7D541204781C7D6445
:030A8F0012048AC4
:010A92002241
:100AB300C2947F027E00120B72D2947F0A7E0012D0
:0F0AC3000B72C294D28E2095FDC28E120A6F2242
:1008C900120B94120B1FAE1AAF1B7C007D0A120487
:1008D9008A12092620B324AE1AAF1BE4FCFD7BF073
:1008E9007AFFF9F8D31205174011740A251BF51B75
:1008F900E4351AF51AAF1BFE120AEE20B2C8D3E589
:100909001B940AE51A940040BD74F6251BF51B7467
:0D091900FF351AF51AAF1BFE120AEE80A979
:030023000209824D
:07098200C0E0C0D075D008F1
:10098900309822AF99C298E5102408FDE433FCE5BC
:10099900126D7001EC600EAE120512EE540724764A
:1009A900F8A60FD20930991BC299E5116513601198
:1009B900AF110511EF5407247EF8E6F599C20B80B3
:0309C90002C20A5D
:0509CC00D0D0D0E032A4
:100B0800E512651060FAC2ACAF100510EF54072467
:060B180076F8E6FFD2AC06
:010B1E0022B4
:100AD200200B18200A05D20A8F9922C2ACAE130548
:0C0AE20013EE5407247EF8A607D2AC22C5
:100B3600AD07BD0A08200BFD7F0D120AD2200BFD62
:060B4600AF05120AD222E5
:100A9300E4F510F512F511F513C20BC20A438920D0
:100AA300759850758DFD758BFDD2AFD2ACD28E2269
:03000600020A9358
:08000E0025640A000000000057
:100B6000AD071FED600BE4FEEEC3940D50F20E8056
:010B7000F78D
:010B71002261
:030003000205BB38
:1005BB00C0E0C0F0C083C082C0D075D000C000C006
:0D05CB0001C002C003C004C005C006C00787
:1005D800785E7C007D007BFF7A0079127E007F04C4
:1005E800120452C2A8D297D2967F0A120B6030B278
:1005F80005D2A80206F0C29720B2077F01120B604D
:1006080080F620B2FDE4FC755C0020B2077F011281
:100618000B6080F630B2107F01120B60055DE55D5E
:10062800D3941E40EFC296745E2CF8C000E6FFC358
:1006380013D000F6E55DD3940A4008745E2CF8E602
:100648004480F6755D00055CE55CC3940840BB0C0E
:10065800BC04B4E561F465606005D2A80206F085C3
:100668006014E56012052D06B10806990C0691166E
:1006780006A11806B91C06C94206D94A06D152066F
:10068800C15A06A95E000006DF75150075160080C0
:1006980046751500751601803E75150075160280A1
:1006A80036751500751603802E75150075160480AD
:1006B80026751500751605801E75150075160680B9
:1006C80016751500751607800E75150075160880C5
:1006D800067515007516097BFF7A00790E85156574
:0806E800851666120088D2A8F5
:1006F000D007D006D005D004D003D002D001D0005E
:0B070000D0D0D082D083D0F0D0E03207
:020A15008F1C34
:100A1700C2917F027E00120B72E4F51DE51C139252
:100A2700917F027E00120B72E51CC313F51C051D96
:0B0A3700C3E51D6480948840E3D29169
:010A42002291
:070BA400D288D2AFD2A822D3
:100A4700104505DC05DC05DC05DC05DC05DC05DC23
:100A570005DC103505DC05DC05DC05DC05DC05DC23
:070A670005DC05DC012201A2
:06085D008B558A568957F5
:10086300E4FFF558F559F55AF55BAB55AA56A95768
:1008730075F002EFA4F58285F0831204DFF55B8542
:10088300F05AC3E4955BFDE4955AFCEF25E024237D
:10089300F8A60408A60575F002EFA4F58285F08397
:1008A3001204DFACF02559F559EC3558F5580FBF54
:1008B30008B8C3E49559FF74489558FEC3E49FF5FF
:0508C30034E49EF53352
:0108C800220D
:03001B0002070BCE
:0A070B00C0E0C0F0C083C082C0D07F
:10071500E52214B4090040030207C490072E75F0C2
:1007250003A4C58325F0C583730207490207550253
:10073500076302077102077F02078D02079B020705
:10074500A90207B7E523F58DE524F58BD290806FD7
:10075500E525F58DE526F58BC290D2918061E527DB
:10076500F58DE528F58BC291D2928053E529F58D5B
:10077500E52AF58BC292D2938045E52BF58DE52CC4
:10078500F58BC293D2948037E525F58DE526F58B5B
:10079500C294D2958029E527F58DE528F58BC2957C
:1007A500D296801BE529F58DE52AF58BC296D29761
:1007B500800DE52BF58DE52CF58BC297752200058F
:0107C5002211
:0B07C600D0D0D082D083D0F0D0E03241
:100B1F00438910E4F58DF58BFB7A00794512085D5A
:070B2F00D2AFD2ABD28E223F
:100AEE00E4FDED25E02435F8A60608A6070DBD08A1
:0A0AFE00F17B007A00793502085DF3
:1007DD000208C9E493A3F8E493A34003F68001F261
:1007ED0008DFF48029E493A3F85407240CC8C3331D
:1007FD00C4540F4420C8834004F456800146F6DFEC
:10080D00E4800B0102040810204080900A43E47E2E
:10081D00019360BCA3FF543F30E509541FFEE493E0
:10082D00A360010ECF54C025E060A840B8E493A3A7
:10083D00FAE493A3F8E493A3C8C582C8CAC583CAD2
:10084D00F0A3C8C582C8CAC583CADFE9DEE780BE8A
:010A6E000087
:10038200E709F608DFFA8046E709F208DFFA803E5D
:1003920088828C83E709F0A3DFFA8032E309F6084A
:1003A200DFFA8078E309F208DFFA807088828C83B2
:1003B200E309F0A3DFFA806489828A83E0A3F60866
:1003C200DFFA805889828A83E0A3F208DFFA804C40
:1003D20080D280FA80C680D4806980F28033801017
:1003E20080A680EA809A80A880DA80E280CA803380
:1003F20089828A83ECFAE493A3C8C582C8CCC583F8
:10040200CCF0A3C8C582C8CCC583CCDFE9DEE780C7
:100412000D89828A83E493A3F608DFF9ECFAA9F046
:10042200EDFB2289828A83ECFAE0A3C8C582C8CC9C
:10043200C583CCF0A3C8C582C8CCC583CCDFEADEB5
:10044200E880DB89828A83E493A3F208DFF980CC17
:1004520088F0EF60010E4E60C388F0ED2402B40410
:100462000050B9F582EB2402B4040050AF232345B7
:0604720082239003D27307
:10047800EF8DF0A4A8F0CF8CF0A428CE8DF0A42E98
:02048800FE2252
:10048A00BC000BBE0029EF8DF084FFADF022E4CC56
:10049A00F875F008EF2FFFEE33FEEC33FCEE9DEC1F
:1004AA00984005FCEE9DFE0FD5F0E9E4CEFD22ED65
:1004BA00F8F5F0EE8420D21CFEADF075F008EF2FAF
:1004CA00FFED33FD4007985006D5F0F222C398FDA0
:0504DA000FD5F0EA223D
:1004DF00BB0110E58229F582E5833AF583E0F5F05B
:1004EF00A3E0225009E92582F886F008E622BBFE38
:1004FF000AE92582F8E2F5F008E222E5832AF5837E
:08050F00E993F5F0A3E9932242
:10051700EB9FF5F0EA9E42F0E99D42F0EC6480C85B
:0605270064809845F022FB
:10052D00D083D082F8E4937012740193700DA3A35D
:10053D0093F8740193F5828883E473740293686071
:06054D00EFA3A3A380DF71
:10002600E5712465F8E60571227862300702786585
:10003600E475F0011205AB0205532000EB7F2ED2CA
:10004600008018EF540F2490D43440D4FF30040BB2
:10005600EF24BFB41A0050032461FFE57260021555
:10006600720575E5757002057430070D7862E475E2
:10007600F0011205ABEF020599020B367403D207A5
:100086008003E4C207F5718B628A638964E4F572C2
:10009600F574F575E57260077F2012006180F575CD
:1000A60073FFC201C200C202C203C205C206C20871
:1000B60012002FFF700D3007057F00120072AF751A
:1000C600AE7422B4255FC2D5C20412002FFF24D01D
:1000D600B40A00501A75F00A787230D50508B6FFD2
:1000E6000106C6A426F620D5047002D20380D924C0
:1000F600CFB41A00EF5004C2E5D204020272D20154
:1001060080C6D20080C0D20280BCD2D580BAD205C9
:1001160080B47F201200612002077401B57200408E
:10012600F1120026FF12006102009AD208D2068060
:1001360095120026FB120026FA120026F94A4B7089
:100146000679437A037BFF20022EE572602A7E0041
:100156008E8275830012056C60060EEE657370F074
:10016600C2D5EBC0E0EAC0E0E9C0E0EE1202B9D0C9
:10017600E0F9D0E0FAD0E0FB120553FF60AAEBC02D
:10018600E0EAC0E0E9C0E0120061D0E02401F9D065
:10019600E03400FAD0E0FBE5730460DCD573D98067
:1001A600877BFF7A0279B5D202809C79108002792A
:1001B60008C206C2088008D2D5790A8004790AC224
:1001C600D5E573047002F573E4FAFDFEFF1200260E
:1001D600FC7B08200113120026FD7B1030000A125A
:1001E6000026FE120026FF7B20EC3382D592D550E6
:1001F60013C3E43000069FFFE49EFEE42001039D46
:10020600FDE49CFCE4CBF8C201EC700CCFCECDCC67
:10021600E824F8F870F38017C3EF33FFEE33FEEDF2
:1002260033FDEC33FCEB33FB994002FB0FD8E9EBD3
:10023600300105F8D0E0C448B201C0E00AEC4D4EEA
:100246004F78207B0070C2EAB5730040BCC0E01254
:1002560002BBD0F0D0E0200104C4C0E0C4B201C0AB
:10026600F012004AD0F0D5F0EB02009A12052D01EB
:10027600375301B15801084C01044201B54F01BD85
:0F0286004401BD49011D4301C35501A74601A70E
:100295004501A747036350010C2D01102E01332B97
:1002A500011423013120034C2A00CC480000012B06
:1002B5003F3F3F00790AA2D5200314300509B91044
:1002C500020404B9080104A2D52006025001042045
:1002D50002689202B572005034C0E07F20300319E5
:1002E5007F30A20272067205500F120312C202C2BB
:1002F50006C205C2087F30800F300503E9C0E01251
:100305000061300503D0E0F9D0E0B572CC300517B7
:100315007F30B9100C1200617F583004077F788058
:1003250003B908031200613002057F2D0200617FC9
:10033500202008F87F2B2006F322920280CF286E1A
:10034500756C6C2900D2011200263001F8C20178C3
:100355007230D50108F60200CC2D504349581200E1
:10036500262403B405004001E490035E9312005275
:0D037500743A120052D2037572040201B1F5
:10055300BB010689828A83E0225002E722BBFE02A6
:09056300E32289828A83E49322D9
:10056C00BB010CE58229F582E5833AF583E0225044
:10057C0006E92582F8E622BBFE06E92582F8E2228E
:0D058C00E58229F582E5833AF583E49322A8
:10059900BB010689828A83F0225002F722BBFE0141
:0205A900F3223B
:1005AB00FAE6FB0808E6F925F0F618E6CA3AF62251
:00000001FF
